:020000040800F2
:100000000050002029160008BD150008BF15000883
:1000100000000000000000000000000000000000E0
:10002000000000000000000000000000C1150008F2
:100030000000000000000000C3150008C5150008FE
:100040007916000879160008791600087916000854
:100050007916000879160008791600087916000844
:100060007916000879160008791600087916000834
:100070007916000879160008791600087916000824
:1000800079160008791600087916000800000000AB
:100090007916000879160008791600087916000804
:1000A00079160008791600087916000879160008F4
:1000B00079160008791600087916000879160008E4
:1000C00010B5064C2378002B07D1054B002B02D02E
:1000D000044800E000BF0123237010BD0C00002085
:1000E00000000000D4160008044B10B5002B03D00C
:1000F0000349044800E000BF10BDC04600000000F6
:1001000010000020D416000802B4714649084900C6
:10011000095C49008E4402BC7047C04603B4714676
:10012000490840004900095E49008E4403BC7047FD
:10013000002243088B4274D303098B425FD3030A26
:100140008B4244D3030B8B4228D3030C8B420DD339
:10015000FF22090212BA030C8B4202D312120902C7
:1001600065D0030B8B4219D300E0090AC30B8B4205
:1001700001D3CB03C01A5241830B8B4201D38B03B3
:10018000C01A5241430B8B4201D34B03C01A524158
:10019000030B8B4201D30B03C01A5241C30A8B429B
:1001A00001D3CB02C01A5241830A8B4201D38B0286
:1001B000C01A5241430A8B4201D34B02C01A52412A
:1001C000030A8B4201D30B02C01A5241CDD2C3099C
:1001D0008B4201D3CB01C01A524183098B4201D318
:1001E0008B01C01A524143098B4201D34B01C01A03
:1001F000524103098B4201D30B01C01A5241C3087B
:100200008B4201D3CB00C01A524183088B4201D3E9
:100210008B00C01A524143088B4201D34B00C01AD5
:100220005241411A00D20146524110467047FFE741
:1002300001B5002000F006F802BDC0460029F7D045
:1002400076E770477047C046002B11D1002A0FD1C6
:10025000002900D1002802D00021C943081C07B49E
:10026000024802A14018029003BDC046D9FFFFFF1B
:1002700003B4684601B5029800F006F8019B9E465B
:1002800002B00CBC7047C046F0B557464E464546D6
:10029000DE46E0B5040083B00D00924699468B42DD
:1002A0002FD82CD04946504600F0AEF82900060061
:1002B000200000F0A9F8331A9846203B9B4600D551
:1002C00074E053465A4693401F00534642469340BB
:1002D0001E00AF4229D826D05B46A41BBD41002B8F
:1002E00000DA79E0002200230092019301235A46AC
:1002F00093400193012342469340009319E08242C8
:10030000D0D900220023009201930C9B002B01D036
:100310001C605D600098019903B03CBC9046994612
:10032000A246AB46F0BDA342D6D9002200230092DC
:1003300001934346002BE8D0FB0772081A43464658
:100340007B080EE0AB4201D1A2420CD8A41A9D4119
:10035000012024196D410021013E24184D41002E39
:1003600006D0AB42EED9013E24196D41002EF8D1E2
:100370005B460098019900196941002B22DB2B0094
:100380005A46D3402A004446E2401C005B46150012
:10039000002B2CDB26009E40330026004746BE4043
:1003A0003200801A994100900191AEE74246202325
:1003B0009B1A5246DA40414613004A468A401700CB
:1003C0001F4382E7424620239B1A2A0046469A4052
:1003D0002300F3401343D5E74246202300219B1A14
:1003E0000022009101920122DA40019282E7424606
:1003F000202326009B1ADE402F00B4469740664615
:100400003B003343C9E7C04610B5002903D100F0D3
:1004100007F8203002E0081C00F002F810BDC046CA
:100420001C2101231B04984201D3000C10391B0A24
:10043000984201D3000A08391B09984201D30009E8
:10044000043902A2105C40187047C046040302023F
:1004500001010101000000000000000070B505006E
:10046000FA200D4B80001978FFF762FE0B4B01005C
:100470001868FFF75DFE00F06BF804000120002C07
:1004800009D1032D07D802382200290000F030F8E6
:100490002000034B1D6070BD0000002008000020FC
:1004A000040000204023084A10B5116800200B43C7
:1004B0001360FFF7D3FF041E03D101F043F82000BF
:1004C00010BD0124FBE7C04600200240034A044B54
:1004D00011681B785B1813607047C0462800002025
:1004E00000000020014B18687047C046280000201B
:1004F00070B58901002814DA0F23C0B20340083B0D
:10050000114A9B089B009B18032210409040FC322C
:100510001500114085408140DC69AC432143D9611D
:1005200070BD032583082840A840FC352E00074AEB
:100530009B009B18C02286402940814092009C5815
:10054000B44321439950EBE700ED00E000E100E007
:10055000094A431E012093420DD8C021074A08488A
:100560005360036A09061B021B0A0B430362002047
:100570000723906013607047FFFFFF0010E000E06A
:1005800000ED00E0F0B5584A0B688218541EA241F5
:1005900087B004930023053203910592049ADA4050
:1005A00001D107B0F0BD012637009F40049A3A40C0
:1005B000029200D195E0039A526801921022019DA7
:1005C00095436A1EB24213D8032459008C408C46CE
:1005D00082680399A243CC6861468C4022438260C2
:1005E000019A4468120932409A40BC432243426057
:1005F00003225F00BA400399D2438C68C668BC40AE
:1006000016403443C460022D0ED10F2105351D4024
:10061000AD00A940DC08A4000419266A8E430399A2
:100620000969A9400E432662032604682240019C02
:100630003440BC4022430260019AD20051D51D00D3
:100640000F2701213540AD00AF40284C8C46626B2E
:100650000A436263264A9C08A400A418A268BA430D
:10066000A0271100FF050022B84210D0214F62469A
:10067000B8420CD0204F9218B84208D01F4F320019
:10068000B84204D01E4E6244B04200D0059AAA403F
:100690000A430299A2600D001A4ACC4316680199D8
:1006A0003543C90301D43500254015605668029DC5
:1006B00001993543890301D435002540556096687A
:1006C000029D01993543C90201D43500254095604A
:1006D000D568029E01992E43890201D425402E003F
:1006E000D66001335AE7C04600E4FFAF0010024075
:1006F000000001400004005000080050000C0050B1
:1007000000100050000401400C22184B10B5D968AD
:100710000A40082A26D00C2A06D0042A1AD11B68BF
:10072000DB0621D4124810BD8A021248120F825CE7
:100730000902D868890F0131C00304D50E4850431F
:10074000FFF7F6FCEFE71B68DB0601D50B48F6E781
:100750000748F4E780205B6800021B045B0F01334D
:100760009840E0E70448DEE70448DCE70010024078
:100770000024F4001517000800127A0000093D005B
:10078000F0B5050087B0002802D1012007B0F0BD08
:100790000C23C24CE668E2681E4080235B021A40CC
:1007A00001920268D20741D42B689B0700D587E0ED
:1007B0002B68DB0628D5002E00D0E1E023689B05DE
:1007C00002D5EB69002BE0D06268B5496B6A0A403C
:1007D0001A43626061682A6A0902090A12060A431A
:1007E000626080225B0B013312029A401300E168C1
:1007F00000200A06AB49120F8A5CD340AA4A136054
:10080000FFF72CFE0028C1D12B681B0700D5EEE0B6
:100810002B685B0700D510E12B689B0600D595E19E
:10082000AB6A002B00D0C4E10020AFE7082E04D053
:100830000C2E09D1019A002A06D023689B03B3D558
:100840006B68002BB0D1A0E76A689A4211D1226888
:1008500013432360FFF746FE0700802223689202BD
:100860001342A1D1FFF73EFEC01B6428F5D9032037
:100870008CE7A021C9028A4205D180222168D202D8
:100880000A432260E3E7216888480140216021682B
:100890000B400593059B864923680B402360002A83
:1008A000D8D1FFF71FFE070080222368920213426F
:1008B00000D179E7FFF716FEC01B6428F4D9D6E70C
:1008C0002022EB68134203D0216893431143216037
:1008D000042E04D00C2E25D1019A002A22D12268A0
:1008E000520702D5002B00D14FE761682A69714891
:1008F000120201400A430921626022688A431343BD
:100900002360FFF701FFE368664A1B061B0FD35CF9
:10091000D840654B18600020FFF7A0FD002800D1EB
:1009200046E733E7002B19D0092122688A43134395
:100930002360FFF7D7FD070004222368134207D086
:1009400062682B695B491B020A40134363602FE70F
:10095000FFF7C8FDC01B0228EED988E701222368F3
:1009600093432360FFF7BEFD070004222368134270
:1009700000D11DE7FFF7B6FDC01B0228F5D976E7C9
:10098000EB69002B20D0802322685B001343236097
:10099000FFF7A8FD070080222368920013420DD0C4
:1009A00063683F4A13406A6A1343636062682B6A54
:1009B00012021B06120A1343636025E7FFF792FD3C
:1009C000C01B0228E7D952E723683B4A1340236043
:1009D000FFF788FD0700802223689200134200D1B0
:1009E00012E7FFF77FFDC01B0228F4D93FE76A69D1
:1009F0000123002A10D0226D13432365FFF772FDF7
:100A000007000222236D134200D001E7FFF76AFDC1
:100A1000C01B0228F5D92AE7226D9A432265FFF709
:100A200061FD07000222236D134200D1F0E6FFF7BB
:100A300059FDC01B0228F5D919E780230021A26BBC
:100A40005B0501911A4204D1A26B1343A3630123F6
:100A500001938022194F52003B68134208D0802234
:100A6000AB68520093422BD1226D134323654CE0B7
:100A700080223B68520013433B60FFF733FD802325
:100A80005B00029003933B68039A1342E7D1FFF7A0
:100A900029FD029BC01A6428F5D9E8E6001002403F
:100AA000FF1FFFFFFD16000808000020FFFFFEFFEC
:100AB000FFFFFBFFFFE0FFFFFFFEFFFF00700040B6
:100AC000002B16D1236D6C4A13402365236D6B4AAE
:100AD00013402365FFF706FD07008022236D920077
:100AE00013422AD0FFF7FEFC654BC01B9842F4D995
:100AF000BDE6A021C9008B420BD18023216DDB0014
:100B00000B432365236D1A432265FFF7EBFC0700B7
:100B10000EE0236D584A13402365236D574A134056
:100B2000A4E7FFF7DFFC564BC01B984200D99EE6B6
:100B30008022236D92001342F3D0019B012B00D041
:100B40006AE6A36B4F4A1340A36365E6A9690123D4
:100B50004D4A002918D0A1681943A160616B0B436D
:100B600063638023116A9B010B431362FFF7BAFC96
:100B700007000222A368134200D051E6FFF7B2FC3F
:100B8000C01B0228F5D972E6A1689943A160136AD7
:100B90003E490B401362FFF7A5FC07000222A36841
:100BA000134200D13CE6FFF79DFCC01B0228F5D99B
:100BB0005DE60C2E43D0364A022B2ED123688026C8
:100BC00013402360FFF78EFC0700B604236833420E
:100BD0001DD1296BEB6AE2680B432E490A4013438F
:100BE0006A6B80251343E360802322685B04134310
:100BF0002360FFF777FC0600AD0423682B4200D08A
:100C000012E6FFF76FFC801B0228F6D92FE6FFF7EC
:100C100069FCC01B0228D9D929E623688025134026
:100C20002360FFF75FFC0600AD0423682B4200D170
:100C3000FAE5FFF757FC801B0228F6D917E61800E3
:100C4000012B00D1A2E58022E368E96A52021A4032
:100C500001208A4200D099E5F022296B92031A40C4
:100C60008A4200D092E5C02000040340686B181A45
:100C7000431E9841C0B289E5FFFEFFFFFFFBFFFF67
:100C800088130000FFFFFFEF00000140FFDFFFFFC0
:100C9000FFFFFFFEFFFF02FFF7B5061E019101D126
:100CA0000120FEBD0122514C0199236813408B4263
:100CB00027D3326893072FD4D30735D40123226872
:100CC00001991A40914200D281E03268484C5307A2
:100CD00000D584E0130706D5E26833694549DB0097
:100CE0000A401343E360FFF70FFDE368424A1B0627
:100CF0001B0FD35CD840414B18600020FFF7AEFBC0
:100D0000CFE72368019993430B4323602368134083
:100D1000019A9A42C4D1CCE7F0203549CB6883438D
:100D2000B0680343CB60C7E7314D72682B68022A75
:100D300019D19B03B4D50321EB688B431343EB60BC
:100D4000FFF7D0FB73680700022B19D10C22EB6868
:100D50001340082BB2D0FFF7C5FB294BC01B9842AC
:100D6000F4D903209DE7032A02D19B01E3D497E73E
:100D7000012A02D15B07DED492E79B05DBD48FE723
:100D8000032B0BD10C22EB681340934296D0FFF754
:100D9000A9FB1B4BC01B9842F4D9E2E7012B10D0F2
:100DA0000C22EB68134289D0FFF79CFB144BC01B4D
:100DB0009842F5D9D5E7FFF795FB114BC01B984238
:100DC000CFD80C22EB681340042BF4D176E72268CD
:100DD0009A43226022681A4200D061E775E7E3680F
:100DE00008490B40F1680B43E36073E700200240C1
:100DF00000100240FFC7FFFFFD160008080000209A
:100E000088130000FFF8FFFF044B054ADB685B0511
:100E10005B0FD35C034A1068D84070470010024053
:100E20000D17000808000020044B054ADB689B04EE
:100E30005B0FD35C034A1068D84070470010024033
:100E40000D170008080000208223F7B502681B0177
:100E500005001A4248D080230021654C5B05A26B37
:100E600000911A4204D1A26B1343A36301230093A0
:100E70008027604E7F0033683B4277D06968C0228C
:100E800008002368920313401040834203D1A868EE
:100E90000240934209D0C0230A009B021A409A42A2
:100EA00003D1236801209B0371D4C022236D9202D9
:100EB000134000D06CE06968C0230A009B021A400E
:100EC0009A4207D123684C480340C0208003014068
:100ED0000B432360236D1A43009B2265012B03D132
:100EE000A36B464A1340A3632B68DA0706D5032099
:100EF0003F49CA6C8243E8680243CA649A0706D530
:100F00000C203B49CA6C824328690243CA645A07D1
:100F100006D537493A48CA6C024068690243CA6438
:100F20001A0706D532493748CA6C0240A8690243FD
:100F3000CA64DA0506D52E493348CA6C0240E8690E
:100F40000243CA645A0606D529493048CA6C024091
:100F5000686A0243CA6400201B0618D5244A2C493B
:100F6000D36C0B40296A0B43D36410E033683B43D6
:100F70003360FFF7B7FA019033683B4200D07DE75A
:100F8000FFF7B0FA019BC01A6428F5D90320FEBD13
:100F900011408B4202D02968890608D4A9680A400A
:100FA000934200D187E72B681B0500D483E780229A
:100FB000216D206D120302432265226D124B1548EC
:100FC0000B40024022652365CB0500D473E7FFF791
:100FD00089FA80270600BF00236D3B4200D06AE7F4
:100FE000FFF780FA0C4B801B9842F5D9CEE7C0463C
:100FF0000010024000700040FFFFCFFFFFFFFFEF37
:10100000FFF3FFFFFFCFFFFFFFFFFCFFFFFFFFFB33
:10101000FFFFF3FFFFFFF7FF88130000F8B50400A0
:101020002569A26803682A436569C1692A4318686B
:10103000814D0A43284002431A605A687F48804D18
:101040000240E06802435A60A069AB4201D0226AC4
:1010500010439A687B4E324002439A607A4A934228
:1010600013D10322794BDB6C1340794AD05C802387
:101070001B02994200D1D1E0082826D8FFF744F896
:10108000C0969925B4252525B700724A934205D10B
:101090000C226E4BDB6C13406F4AE7E76F4A9342BA
:1010A00000D1A9E06E4A934200D1A5E0AB4200D046
:1010B000ADE0C0218020654A0901D36CC0000B401F
:1010C000834238D003D8002B0AD001250DE08020C0
:1010D000000183420ED08B42F7D1802000020DE048
:1010E000FFF792FE0025A84208D1002328002366BE
:1010F0006366F8BD1368DB0620D55A48032263688F
:101100005A438242E1D81A038242DED30027020EFC
:1011100001025E0889197A41080011001A003B009B
:10112000FFF792F8504BC218504B9A42CDD8236823
:101130003D00D860D9E7FFF7E7FAD3E74C48DDE791
:10114000FFF762FE636840005B08C01861680BE04F
:10115000FFF76AFEF6E710253C4B61681A684808FD
:10116000154006D0434BC018FEF7E2FF002583B2BE
:1011700004E0414BC018FEF7DBFF83B219003F4883
:1011800010398142A1D80F2118001B0788435B0F3B
:1011900021680343CB60A8E7FFF7B6FAD2E763689C
:1011A000580880235B02D0E70023E7E7FFF73CFE07
:1011B00028E01025254B61681A684808154006D0BC
:1011C000284BC018FEF7B4FF002583B204E0284B7B
:1011D000C018FEF7ADFF83B21900284810398142CC
:1011E00000D972E72168D5E7FFF78EFA0AE0636855
:1011F000580880231B0207E080231B0299429FD0DE
:10120000FFF702FE63685B08C0186168DAE78023B5
:1012100001251B029942C7D00023DDE7082800D929
:1012200053E7FEF77BFF8DFF95FF98FF52FFB9FF55
:1012300052FF52FF52FFBCFFF369FFEFFFCFFFFFEA
:1012400000480040FFF4FFFF00380140001002405A
:10125000EC16000800440040F0160008004C004066
:101260000050004000093D0000FDFFFFFFFC0F00A3
:101270000024F40000127A000048E801EFFF0000AB
:10128000436A30B5DA0706D50168284C4A6822401F
:10129000846A22434A609A0706D50168244C4A684A
:1012A0002240C46A22434A605A0706D50168214C8D
:1012B0004A682240046B22434A601A0706D5016837
:1012C0001D4C4A682240446B22434A60DA0606D528
:1012D00001681A4C8A682240846B22438A609A060D
:1012E00006D50168164C8A682240C46B22438A6086
:1012F0005A0610D50168134D4A68046C2A402243EF
:101300004A6080225203944205D14A680E4C224022
:10131000446C22434A601B0606D502680B49536899
:101320000B40816C0B43536030BDC046FFFFFDFF97
:10133000FFFFFEFFFFFFFBFFFF7FFFFFFFEFFFFF52
:10134000FFDFFFFFFFFFEFFFFFFF9FFFFFFFF7FF45
:10135000F8B504000E0015001F002268D369334061
:101360009B1B59424B41AB4201D000201BE0069B26
:101370000133F3D0FFF7B6F8069BC01B834201D3BD
:10138000002BEAD1236808491A6803200A401A6032
:101390009A68A331FF318A439A6020236367A36769
:1013A000002370342370F8BD5FFEFFFF73B5002685
:1013B0000400C667FFF796F8236805001B681B0743
:1013C00015D423681B685B070AD580210E4B0022C9
:1013D0000093C9032B002000FFF7BAFF002811D1AA
:1013E000202300206367A367703420700BE0802106
:1013F000054B32000093890303002000FFF7A8FF8C
:101400000028DED0032076BDFFFFFF0110B5041ECB
:1014100001D1012010BD436F002B04D102007032B6
:10142000137000F09DF8242301212268636713687C
:1014300020008B431360FFF7F1FD0128E9D0636AB8
:10144000002B02D02000FFF71BFF236807495A68D2
:1014500020000A402A215A609A688A439A60012231
:1014600019680A431A60FFF7A1FFD3E7FFB7FFFF30
:1014700030B59FB03822002110A800F023F91422C3
:10148000002101A800F01EF92822002106A800F082
:1014900019F91249124A0B6800241A4080231B01D3
:1014A00013430B6001231093802310A85B02119358
:1014B00002251A94FFF764F90F23210001A8019374
:1014C0000295039404940594FFF7E6FB06A806959D
:1014D0000A94FFF7B9FC1FB030BDC0460070004051
:1014E000FFE7FFFF07B5FEF7DDFFFFF7C1FF802035
:1014F000114BD96A0143D9620121DA6A0240009294
:10150000009ADA6A0D480A43DA62DB6A0C220B4061
:101510000193019B0A4B42610360E1235B0243603C
:1015200000238360C36003618361C361036243621C
:10153000FFF76CFFFEE7C046001002402C000020C1
:10154000004400400122054B596B0A435A63802234
:10155000996B52050A439A637047C04600100240D7
:1015600010B5040086B01422002101A800F0AAF8EA
:10157000104B22689A421AD180220F4B9202996B2B
:10158000A0200A4301219A63DA6AC0050A43DA629D
:10159000DB6A0B400093009B0C2301930A3B0293F0
:1015A0005B1804935B1801A90593FEF7EBFF06B0E7
:1015B00010BDC04600440040001002407047FEE7E6
:1015C0007047704710B5FEF781FF10BD8022104BA9
:1015D000520019680A431A60DA680E490A40DA6054
:1015E0001A680D490A4001211A609A688A439A6074
:1015F0001A680A490A401A60DA6809490A40DA603A
:1016000000221A618022074B12059A607047C0467B
:10161000001002400C40FF88F6FFF6FEFFFFFBFFC4
:10162000FFFF02FF00ED00E00D488546002103E0CA
:101630000C4B5B58435004310B480C4B42189A42F8
:10164000F6D30B4A02E0002313600432094B9A429E
:10165000F9D3FFF7BBFF00F011F8FFF743FFFEE7F8
:101660000050002030170008000000200C0000206F
:101670000C000020AC000020FEE7000070B5002642
:101680000C4D0D4C641BA410A64209D1002600F09D
:1016900021F80A4D0A4C641BA410A64205D170BD66
:1016A000B300EB5898470136EEE7B300EB58984784
:1016B0000136F2E728170008281700082817000845
:1016C0002C17000803008218934200D1704719704C
:1016D0000133F9E7F8B5C046F8BC08BC9E46704730
:0C16E000F8B5C046F8BC08BC9E46704738
:1016EC000104020800101010041010100210101049
:1016FC0008000000000000000001020304060708B7
:10170C00090000000001020304030406080C101871
:04171C002030000079
:0817200068EBFF7F01000000EF
:04172800E9000008CC
:04172C00C1000008F0
:0C17300001000000040000000000200088
:0400000508001629B0
:00000001FF
